{
  "_format": "hh-sol-artifact-1",
  "contractName": "Raffle",
  "sourceName": "contracts/Raffle.sol",
  "abi": [
    {
      "inputs": [
        {
          "internalType": "address",
          "name": "vrfCoordinatorV2",
          "type": "address"
        },
        {
          "internalType": "uint256",
          "name": "entrance_fees",
          "type": "uint256"
        },
        {
          "internalType": "bytes32",
          "name": "gasLane",
          "type": "bytes32"
        },
        {
          "internalType": "uint64",
          "name": "subscriptionId",
          "type": "uint64"
        },
        {
          "internalType": "uint32",
          "name": "callbackGasLimit",
          "type": "uint32"
        },
        {
          "internalType": "uint256",
          "name": "interval",
          "type": "uint256"
        }
      ],
      "stateMutability": "nonpayable",
      "type": "constructor"
    },
    {
      "inputs": [
        {
          "internalType": "address",
          "name": "have",
          "type": "address"
        },
        {
          "internalType": "address",
          "name": "want",
          "type": "address"
        }
      ],
      "name": "OnlyCoordinatorCanFulfill",
      "type": "error"
    },
    {
      "inputs": [],
      "name": "OnlySimulatedBackend",
      "type": "error"
    },
    {
      "inputs": [],
      "name": "Raffle__NotEnoughETHEntered",
      "type": "error"
    },
    {
      "inputs": [],
      "name": "Raffle__NotOpen",
      "type": "error"
    },
    {
      "inputs": [],
      "name": "Raffle__TransferFailed",
      "type": "error"
    },
    {
      "inputs": [
        {
          "internalType": "uint256",
          "name": "currentBalance",
          "type": "uint256"
        },
        {
          "internalType": "uint256",
          "name": "numPlayers",
          "type": "uint256"
        },
        {
          "internalType": "uint256",
          "name": "raffleState",
          "type": "uint256"
        }
      ],
      "name": "Raffle__UpKeepNotNeeded",
      "type": "error"
    },
    {
      "anonymous": false,
      "inputs": [
        {
          "indexed": true,
          "internalType": "address",
          "name": "player",
          "type": "address"
        }
      ],
      "name": "EnterRaffle",
      "type": "event"
    },
    {
      "anonymous": false,
      "inputs": [
        {
          "indexed": true,
          "internalType": "uint256",
          "name": "requestId",
          "type": "uint256"
        }
      ],
      "name": "RequestedRaffleWinner",
      "type": "event"
    },
    {
      "anonymous": false,
      "inputs": [
        {
          "indexed": true,
          "internalType": "address",
          "name": "winner",
          "type": "address"
        }
      ],
      "name": "WinnerPicked",
      "type": "event"
    },
    {
      "inputs": [
        {
          "internalType": "bytes",
          "name": "",
          "type": "bytes"
        }
      ],
      "name": "checkUpkeep",
      "outputs": [
        {
          "internalType": "bool",
          "name": "upkeepNeeded",
          "type": "bool"
        },
        {
          "internalType": "bytes",
          "name": "",
          "type": "bytes"
        }
      ],
      "stateMutability": "nonpayable",
      "type": "function"
    },
    {
      "inputs": [],
      "name": "enterRaffle",
      "outputs": [],
      "stateMutability": "payable",
      "type": "function"
    },
    {
      "inputs": [],
      "name": "getBlockConformation",
      "outputs": [
        {
          "internalType": "uint256",
          "name": "",
          "type": "uint256"
        }
      ],
      "stateMutability": "pure",
      "type": "function"
    },
    {
      "inputs": [],
      "name": "getEnteranceFees",
      "outputs": [
        {
          "internalType": "uint256",
          "name": "",
          "type": "uint256"
        }
      ],
      "stateMutability": "view",
      "type": "function"
    },
    {
      "inputs": [],
      "name": "getInterval",
      "outputs": [
        {
          "internalType": "uint256",
          "name": "",
          "type": "uint256"
        }
      ],
      "stateMutability": "view",
      "type": "function"
    },
    {
      "inputs": [],
      "name": "getLatestTimeStamp",
      "outputs": [
        {
          "internalType": "uint256",
          "name": "",
          "type": "uint256"
        }
      ],
      "stateMutability": "view",
      "type": "function"
    },
    {
      "inputs": [],
      "name": "getNumWords",
      "outputs": [
        {
          "internalType": "uint256",
          "name": "",
          "type": "uint256"
        }
      ],
      "stateMutability": "pure",
      "type": "function"
    },
    {
      "inputs": [],
      "name": "getNumberOfPlayers",
      "outputs": [
        {
          "internalType": "uint256",
          "name": "",
          "type": "uint256"
        }
      ],
      "stateMutability": "view",
      "type": "function"
    },
    {
      "inputs": [
        {
          "internalType": "uint256",
          "name": "index",
          "type": "uint256"
        }
      ],
      "name": "getPlayer",
      "outputs": [
        {
          "internalType": "address",
          "name": "",
          "type": "address"
        }
      ],
      "stateMutability": "view",
      "type": "function"
    },
    {
      "inputs": [],
      "name": "getRaffleState",
      "outputs": [
        {
          "internalType": "enum Raffle.RaffleState",
          "name": "",
          "type": "uint8"
        }
      ],
      "stateMutability": "view",
      "type": "function"
    },
    {
      "inputs": [],
      "name": "getRecentWinner",
      "outputs": [
        {
          "internalType": "address",
          "name": "",
          "type": "address"
        }
      ],
      "stateMutability": "view",
      "type": "function"
    },
    {
      "inputs": [
        {
          "internalType": "bytes",
          "name": "",
          "type": "bytes"
        }
      ],
      "name": "performUpkeep",
      "outputs": [],
      "stateMutability": "nonpayable",
      "type": "function"
    },
    {
      "inputs": [
        {
          "internalType": "uint256",
          "name": "requestId",
          "type": "uint256"
        },
        {
          "internalType": "uint256[]",
          "name": "randomWords",
          "type": "uint256[]"
        }
      ],
      "name": "rawFulfillRandomWords",
      "outputs": [],
      "stateMutability": "nonpayable",
      "type": "function"
    }
  ],
  "bytecode": "0x6101606040523480156200001257600080fd5b5060405162001835380380620018358339818101604052810190620000389190620001ad565b858073ffffffffffffffffffffffffffffffffffffffff1660808173ffffffffffffffffffffffffffffffffffffffff1660601b81525050508460a081815250508573ffffffffffffffffffffffffffffffffffffffff1660c08173ffffffffffffffffffffffffffffffffffffffff1660601b815250508360e081815250508267ffffffffffffffff166101008167ffffffffffffffff1660c01b815250508163ffffffff166101208163ffffffff1660e01b815250506000600160006101000a81548160ff02191690836001811115620001195762000118620002b5565b5b0217905550426002819055508061014081815250505050505050506200036b565b6000815190506200014b81620002e9565b92915050565b600081519050620001628162000303565b92915050565b60008151905062000179816200031d565b92915050565b600081519050620001908162000337565b92915050565b600081519050620001a78162000351565b92915050565b60008060008060008060c08789031215620001cd57620001cc620002e4565b5b6000620001dd89828a016200013a565b9650506020620001f089828a0162000168565b95505060406200020389828a0162000151565b94505060606200021689828a0162000196565b93505060806200022989828a016200017f565b92505060a06200023c89828a0162000168565b9150509295509295509295565b6000620002568262000267565b9050919050565b6000819050919050565b600073ffffffffffffffffffffffffffffffffffffffff82169050919050565b6000819050919050565b600063ffffffff82169050919050565b600067ffffffffffffffff82169050919050565b7f4e487b7100000000000000000000000000000000000000000000000000000000600052602160045260246000fd5b600080fd5b620002f48162000249565b81146200030057600080fd5b50565b6200030e816200025d565b81146200031a57600080fd5b50565b620003288162000287565b81146200033457600080fd5b50565b620003428162000291565b81146200034e57600080fd5b50565b6200035c81620002a1565b81146200036857600080fd5b50565b60805160601c60a05160c05160601c60e0516101005160c01c6101205160e01c6101405161144e620003e7600039600081816107cb01526108610152600061068a01526000610667015260006106460152600061060a0152600081816103cf015261083901526000818161030f0152610363015261144e6000f3fe6080604052600436106100c25760003560e01c8063473f1ddc1161007f57806381c5b2c71161005957806381c5b2c71461023857806391ad27b414610263578063e55ae4e81461028e578063fd6673f5146102cb576100c2565b8063473f1ddc146101a457806353a2c19a146101cf5780636e04ff0d146101fa576100c2565b8063115cbaf5146100c75780631fe543e3146100f25780632cfcc5391461011b578063320229eb146101255780633bf932e2146101505780634585e33b1461017b575b600080fd5b3480156100d357600080fd5b506100dc6102f6565b6040516100e99190611039565b60405180910390f35b3480156100fe57600080fd5b5061011960048036038101906101149190610e2d565b61030d565b005b6101236103cd565b005b34801561013157600080fd5b5061013a61053c565b6040516101479190611054565b60405180910390f35b34801561015c57600080fd5b50610165610546565b6040516101729190611054565b60405180910390f35b34801561018757600080fd5b506101a2600480360381019061019d9190610d3d565b610553565b005b3480156101b057600080fd5b506101b9610752565b6040516101c69190610f72565b60405180910390f35b3480156101db57600080fd5b506101e461077a565b6040516101f19190611054565b60405180910390f35b34801561020657600080fd5b50610221600480360381019061021c9190610d8a565b610789565b60405161022f929190610fb6565b60405180910390f35b34801561024457600080fd5b5061024d610835565b60405161025a9190611054565b60405180910390f35b34801561026f57600080fd5b5061027861085d565b6040516102859190611054565b60405180910390f35b34801561029a57600080fd5b506102b560048036038101906102b09190610dd3565b610885565b6040516102c29190610f72565b60405180910390f35b3480156102d757600080fd5b506102e06108cc565b6040516102ed9190611054565b60405180910390f35b6000600160009054906101000a900460ff16905090565b7f000000000000000000000000000000000000000000000000000000000000000073ffffffffffffffffffffffffffffffffffffffff163373ffffffffffffffffffffffffffffffffffffffff16146103bf57337f00000000000000000000000000000000000000000000000000000000000000006040517f1cf993f40000000000000000000000000000000000000000000000000000000081526004016103b6929190610f8d565b60405180910390fd5b6103c982826108d8565b5050565b7f0000000000000000000000000000000000000000000000000000000000000000341015610427576040517fbd4e069500000000000000000000000000000000000000000000000000000000815260040160405180910390fd5b6000600181111561043b5761043a61132e565b5b600160009054906101000a900460ff16600181111561045d5761045c61132e565b5b14610494576040517f1425571c00000000000000000000000000000000000000000000000000000000815260040160405180910390fd5b6000339080600181540180825580915050600190039060005260206000200160009091909190916101000a81548173ffffffffffffffffffffffffffffffffffffffff021916908373ffffffffffffffffffffffffffffffffffffffff1602179055503373ffffffffffffffffffffffffffffffffffffffff167fcab710fdc8e0bd0efd87f0f4abe4db93e7843e8582616adc7bdd505ed2ef0ad260405160405180910390a2565b6000600254905090565b6000600361ffff16905090565b600061056d60405180602001604052806000815250610789565b509050806105dc5747600080549050600160009054906101000a900460ff16600181111561059e5761059d61132e565b5b6040517f3a8d60860000000000000000000000000000000000000000000000000000000081526004016105d39392919061106f565b60405180910390fd5b60018060006101000a81548160ff021916908360018111156106015761060061132e565b5b021790555060007f000000000000000000000000000000000000000000000000000000000000000073ffffffffffffffffffffffffffffffffffffffff16635d3b1d307f00000000000000000000000000000000000000000000000000000000000000007f000000000000000000000000000000000000000000000000000000000000000060037f000000000000000000000000000000000000000000000000000000000000000060016040518663ffffffff1660e01b81526004016106cb959493929190610fe6565b602060405180830381600087803b1580156106e557600080fd5b505af11580156106f9573d6000803e3d6000fd5b505050506040513d601f19601f8201168201806040525081019061071d9190610e00565b9050807fcd6e45c8998311cab7e9d4385596cac867e20a0587194b954fa3a731c93ce78b60405160405180910390a250505050565b600060018054906101000a900473ffffffffffffffffffffffffffffffffffffffff16905090565b6000600163ffffffff16905090565b6000606060008060018111156107a2576107a161132e565b5b600160009054906101000a900460ff1660018111156107c4576107c361132e565b5b14905060007f0000000000000000000000000000000000000000000000000000000000000000600254426107f8919061114f565b119050600080600080549050119050600080471190508380156108185750825b80156108215750815b801561082a5750805b955050505050915091565b60007f0000000000000000000000000000000000000000000000000000000000000000905090565b60007f0000000000000000000000000000000000000000000000000000000000000000905090565b600080828154811061089a5761089961135d565b5b9060005260206000200160009054906101000a900473ffffffffffffffffffffffffffffffffffffffff169050919050565b60008080549050905090565b60008080549050826000815181106108f3576108f261135d565b5b6020026020010151610905919061129f565b9050600080828154811061091c5761091b61135d565b5b9060005260206000200160009054906101000a900473ffffffffffffffffffffffffffffffffffffffff169050806001806101000a81548173ffffffffffffffffffffffffffffffffffffffff021916908373ffffffffffffffffffffffffffffffffffffffff1602179055506000600160006101000a81548160ff021916908360018111156109af576109ae61132e565b5b0217905550600067ffffffffffffffff8111156109cf576109ce61138c565b5b6040519080825280602002602001820160405280156109fd5781602001602082028036833780820191505090505b5060009080519060200190610a13929190610b08565b504260028190555060008173ffffffffffffffffffffffffffffffffffffffff1647604051610a4190610f5d565b60006040518083038185875af1925050503d8060008114610a7e576040519150601f19603f3d011682016040523d82523d6000602084013e610a83565b606091505b5050905080610abe576040517fa1d04b3900000000000000000000000000000000000000000000000000000000815260040160405180910390fd5b8173ffffffffffffffffffffffffffffffffffffffff167f5b690ec4a06fe979403046eaeea5b3ce38524683c3001f662c8b5a829632f7df60405160405180910390a25050505050565b828054828255906000526020600020908101928215610b81579160200282015b82811115610b805782518260006101000a81548173ffffffffffffffffffffffffffffffffffffffff021916908373ffffffffffffffffffffffffffffffffffffffff16021790555091602001919060010190610b28565b5b509050610b8e9190610b92565b5090565b5b80821115610bab576000816000905550600101610b93565b5090565b6000610bc2610bbd846110cb565b6110a6565b90508083825260208201905082856020860282011115610be557610be46113c5565b5b60005b85811015610c155781610bfb8882610d13565b845260208401935060208301925050600181019050610be8565b5050509392505050565b6000610c32610c2d846110f7565b6110a6565b905082815260208101848484011115610c4e57610c4d6113ca565b5b610c5984828561122c565b509392505050565b600082601f830112610c7657610c756113c0565b5b8135610c86848260208601610baf565b91505092915050565b60008083601f840112610ca557610ca46113c0565b5b8235905067ffffffffffffffff811115610cc257610cc16113bb565b5b602083019150836001820283011115610cde57610cdd6113c5565b5b9250929050565b600082601f830112610cfa57610cf96113c0565b5b8135610d0a848260208601610c1f565b91505092915050565b600081359050610d2281611401565b92915050565b600081519050610d3781611401565b92915050565b60008060208385031215610d5457610d536113d4565b5b600083013567ffffffffffffffff811115610d7257610d716113cf565b5b610d7e85828601610c8f565b92509250509250929050565b600060208284031215610da057610d9f6113d4565b5b600082013567ffffffffffffffff811115610dbe57610dbd6113cf565b5b610dca84828501610ce5565b91505092915050565b600060208284031215610de957610de86113d4565b5b6000610df784828501610d13565b91505092915050565b600060208284031215610e1657610e156113d4565b5b6000610e2484828501610d28565b91505092915050565b60008060408385031215610e4457610e436113d4565b5b6000610e5285828601610d13565b925050602083013567ffffffffffffffff811115610e7357610e726113cf565b5b610e7f85828601610c61565b9150509250929050565b610e9281611183565b82525050565b610ea181611195565b82525050565b610eb0816111a1565b82525050565b6000610ec182611128565b610ecb8185611133565b9350610edb81856020860161123b565b610ee4816113d9565b840191505092915050565b610ef88161121a565b82525050565b6000610f0b600083611144565b9150610f16826113ea565b600082019050919050565b610f2a816111be565b82525050565b610f39816111ec565b82525050565b610f48816111f6565b82525050565b610f5781611206565b82525050565b6000610f6882610efe565b9150819050919050565b6000602082019050610f876000830184610e89565b92915050565b6000604082019050610fa26000830185610e89565b610faf6020830184610e89565b9392505050565b6000604082019050610fcb6000830185610e98565b8181036020830152610fdd8184610eb6565b90509392505050565b600060a082019050610ffb6000830188610ea7565b6110086020830187610f4e565b6110156040830186610f21565b6110226060830185610f3f565b61102f6080830184610f3f565b9695505050505050565b600060208201905061104e6000830184610eef565b92915050565b60006020820190506110696000830184610f30565b92915050565b60006060820190506110846000830186610f30565b6110916020830185610f30565b61109e6040830184610f30565b949350505050565b60006110b06110c1565b90506110bc828261126e565b919050565b6000604051905090565b600067ffffffffffffffff8211156110e6576110e561138c565b5b602082029050602081019050919050565b600067ffffffffffffffff8211156111125761111161138c565b5b61111b826113d9565b9050602081019050919050565b600081519050919050565b600082825260208201905092915050565b600081905092915050565b600061115a826111ec565b9150611165836111ec565b925082821015611178576111776112d0565b5b828203905092915050565b600061118e826111cc565b9050919050565b60008115159050919050565b6000819050919050565b60008190506111b9826113ed565b919050565b600061ffff82169050919050565b600073ffffffffffffffffffffffffffffffffffffffff82169050919050565b6000819050919050565b600063ffffffff82169050919050565b600067ffffffffffffffff82169050919050565b6000611225826111ab565b9050919050565b82818337600083830152505050565b60005b8381101561125957808201518184015260208101905061123e565b83811115611268576000848401525b50505050565b611277826113d9565b810181811067ffffffffffffffff821117156112965761129561138c565b5b80604052505050565b60006112aa826111ec565b91506112b5836111ec565b9250826112c5576112c46112ff565b5b828206905092915050565b7f4e487b7100000000000000000000000000000000000000000000000000000000600052601160045260246000fd5b7f4e487b7100000000000000000000000000000000000000000000000000000000600052601260045260246000fd5b7f4e487b7100000000000000000000000000000000000000000000000000000000600052602160045260246000fd5b7f4e487b7100000000000000000000000000000000000000000000000000000000600052603260045260246000fd5b7f4e487b7100000000000000000000000000000000000000000000000000000000600052604160045260246000fd5b600080fd5b600080fd5b600080fd5b600080fd5b600080fd5b600080fd5b6000601f19601f8301169050919050565b50565b600281106113fe576113fd61132e565b5b50565b61140a816111ec565b811461141557600080fd5b5056fea2646970667358221220224a69e173a9d256e974719395229faa73aae0434da90f08cf394cdc7cba6e7a64736f6c63430008070033",
  "linkReferences": {},
  "deployedLinkReferences": {}
}